{
  "_format": "hh-sol-artifact-1",
  "contractName": "MinesVerifier",
  "sourceName": "contracts/MinesVerifier.sol",
  "abi": [
    {
      "anonymous": false,
      "inputs": [
        {
          "indexed": true,
          "internalType": "string",
          "name": "gameId",
          "type": "string"
        },
        {
          "indexed": false,
          "internalType": "bytes32",
          "name": "seedHash",
          "type": "bytes32"
        },
        {
          "indexed": false,
          "internalType": "uint256",
          "name": "timestamp",
          "type": "uint256"
        }
      ],
      "name": "GameCommitted",
      "type": "event"
    },
    {
      "anonymous": false,
      "inputs": [
        {
          "indexed": true,
          "internalType": "string",
          "name": "gameId",
          "type": "string"
        },
        {
          "indexed": false,
          "internalType": "bytes32",
          "name": "serverSeed",
          "type": "bytes32"
        },
        {
          "indexed": false,
          "internalType": "uint256",
          "name": "timestamp",
          "type": "uint256"
        }
      ],
      "name": "GameRevealed",
      "type": "event"
    },
    {
      "inputs": [
        {
          "internalType": "string",
          "name": "gameId",
          "type": "string"
        },
        {
          "internalType": "bytes32",
          "name": "seedHash",
          "type": "bytes32"
        }
      ],
      "name": "commitGame",
      "outputs": [],
      "stateMutability": "nonpayable",
      "type": "function"
    },
    {
      "inputs": [
        {
          "internalType": "string",
          "name": "",
          "type": "string"
        }
      ],
      "name": "games",
      "outputs": [
        {
          "internalType": "bytes32",
          "name": "seedHash",
          "type": "bytes32"
        },
        {
          "internalType": "address",
          "name": "committer",
          "type": "address"
        },
        {
          "internalType": "uint256",
          "name": "timestamp",
          "type": "uint256"
        },
        {
          "internalType": "bool",
          "name": "revealed",
          "type": "bool"
        },
        {
          "internalType": "bytes32",
          "name": "serverSeed",
          "type": "bytes32"
        }
      ],
      "stateMutability": "view",
      "type": "function"
    },
    {
      "inputs": [
        {
          "internalType": "string",
          "name": "gameId",
          "type": "string"
        }
      ],
      "name": "getGame",
      "outputs": [
        {
          "internalType": "bytes32",
          "name": "seedHash",
          "type": "bytes32"
        },
        {
          "internalType": "address",
          "name": "committer",
          "type": "address"
        },
        {
          "internalType": "uint256",
          "name": "timestamp",
          "type": "uint256"
        },
        {
          "internalType": "bool",
          "name": "revealed",
          "type": "bool"
        },
        {
          "internalType": "bytes32",
          "name": "serverSeed",
          "type": "bytes32"
        }
      ],
      "stateMutability": "view",
      "type": "function"
    },
    {
      "inputs": [
        {
          "internalType": "string",
          "name": "gameId",
          "type": "string"
        },
        {
          "internalType": "bytes32",
          "name": "serverSeed",
          "type": "bytes32"
        }
      ],
      "name": "revealGame",
      "outputs": [],
      "stateMutability": "nonpayable",
      "type": "function"
    },
    {
      "inputs": [
        {
          "internalType": "string",
          "name": "gameId",
          "type": "string"
        },
        {
          "internalType": "bytes32",
          "name": "serverSeed",
          "type": "bytes32"
        }
      ],
      "name": "verifyGame",
      "outputs": [
        {
          "internalType": "bool",
          "name": "valid",
          "type": "bool"
        }
      ],
      "stateMutability": "view",
      "type": "function"
    }
  ],
  "bytecode": "0x608060405234801561001057600080fd5b50610ead806100206000396000f3fe608060405234801561001057600080fd5b50600436106100575760003560e01c80634d4cc73a1461005c5780634d92f652146100785780636d20931a146100ac5780636da213f9146100e0578063a5c11ecf14610110575b600080fd5b610076600480360381019061007191906107a9565b61012c565b005b610092600480360381019061008d9190610809565b610317565b6040516100a39594939291906108da565b60405180910390f35b6100c660048036038101906100c19190610a6e565b61039d565b6040516100d79594939291906108da565b60405180910390f35b6100fa60048036038101906100f591906107a9565b610416565b6040516101079190610ab7565b60405180910390f35b61012a600480360381019061012591906107a9565b610507565b005b600080848460405161013f929190610b02565b90815260200160405180910390206002015414610191576040517f08c379a000000000000000000000000000000000000000000000000000000000815260040161018890610b78565b60405180910390fd5b6000801b81036101d6576040517f08c379a00000000000000000000000000000000000000000000000000000000081526004016101cd90610be4565b60405180910390fd5b6040518060a001604052808281526020013373ffffffffffffffffffffffffffffffffffffffff1681526020014281526020016000151581526020016000801b8152506000848460405161022b929190610b02565b90815260200160405180910390206000820151816000015560208201518160010160006101000a81548173ffffffffffffffffffffffffffffffffffffffff021916908373ffffffffffffffffffffffffffffffffffffffff1602179055506040820151816002015560608201518160030160006101000a81548160ff0219169083151502179055506080820151816004015590505082826040516102d1929190610b02565b60405180910390207fc9972affeb42afb6241dc48dec90257181f3bd194e2e24aa8bfd9383d6a12d1f824260405161030a929190610c04565b60405180910390a2505050565b60008060008060008060008888604051610332929190610b02565b9081526020016040518091039020905080600001548160010160009054906101000a900473ffffffffffffffffffffffffffffffffffffffff1682600201548360030160009054906101000a900460ff16846004015495509550955095509550509295509295909350565b6000818051602081018201805184825260208301602085012081835280955050505050506000915090508060000154908060010160009054906101000a900473ffffffffffffffffffffffffffffffffffffffff16908060020154908060030160009054906101000a900460ff16908060040154905085565b6000806000858560405161042b929190610b02565b908152602001604051809103902090506000816002015403610482576040517f08c379a000000000000000000000000000000000000000000000000000000000815260040161047990610c79565b60405180910390fd5b60006002846040516020016104979190610cba565b6040516020818303038152906040526040516104b39190610d46565b602060405180830381855afa1580156104d0573d6000803e3d6000fd5b5050506040513d601f19601f820116820180604052508101906104f39190610d72565b905081600001548114925050509392505050565b600080848460405161051a929190610b02565b908152602001604051809103902090506000816002015403610571576040517f08c379a000000000000000000000000000000000000000000000000000000000815260040161056890610c79565b60405180910390fd5b8060030160009054906101000a900460ff16156105c3576040517f08c379a00000000000000000000000000000000000000000000000000000000081526004016105ba90610deb565b60405180910390fd5b60006002836040516020016105d89190610cba565b6040516020818303038152906040526040516105f49190610d46565b602060405180830381855afa158015610611573d6000803e3d6000fd5b5050506040513d601f19601f820116820180604052508101906106349190610d72565b90508160000154811461067c576040517f08c379a000000000000000000000000000000000000000000000000000000000815260040161067390610e57565b60405180910390fd5b60018260030160006101000a81548160ff02191690831515021790555082826004018190555084846040516106b2929190610b02565b60405180910390207ff846d836472dc9cfde33b3b6bf95a5d416d1db59f3ef1e1a089a326bf3f0ba1884426040516106eb929190610c04565b60405180910390a25050505050565b6000604051905090565b600080fd5b600080fd5b600080fd5b600080fd5b600080fd5b60008083601f8401126107335761073261070e565b5b8235905067ffffffffffffffff8111156107505761074f610713565b5b60208301915083600182028301111561076c5761076b610718565b5b9250929050565b6000819050919050565b61078681610773565b811461079157600080fd5b50565b6000813590506107a38161077d565b92915050565b6000806000604084860312156107c2576107c1610704565b5b600084013567ffffffffffffffff8111156107e0576107df610709565b5b6107ec8682870161071d565b935093505060206107ff86828701610794565b9150509250925092565b600080602083850312156108205761081f610704565b5b600083013567ffffffffffffffff81111561083e5761083d610709565b5b61084a8582860161071d565b92509250509250929050565b61085f81610773565b82525050565b600073ffffffffffffffffffffffffffffffffffffffff82169050919050565b600061089082610865565b9050919050565b6108a081610885565b82525050565b6000819050919050565b6108b9816108a6565b82525050565b60008115159050919050565b6108d4816108bf565b82525050565b600060a0820190506108ef6000830188610856565b6108fc6020830187610897565b61090960408301866108b0565b61091660608301856108cb565b6109236080830184610856565b9695505050505050565b600080fd5b6000601f19601f8301169050919050565b7f4e487b7100000000000000000000000000000000000000000000000000000000600052604160045260246000fd5b61097b82610932565b810181811067ffffffffffffffff8211171561099a57610999610943565b5b80604052505050565b60006109ad6106fa565b90506109b98282610972565b919050565b600067ffffffffffffffff8211156109d9576109d8610943565b5b6109e282610932565b9050602081019050919050565b82818337600083830152505050565b6000610a11610a0c846109be565b6109a3565b905082815260208101848484011115610a2d57610a2c61092d565b5b610a388482856109ef565b509392505050565b600082601f830112610a5557610a5461070e565b5b8135610a658482602086016109fe565b91505092915050565b600060208284031215610a8457610a83610704565b5b600082013567ffffffffffffffff811115610aa257610aa1610709565b5b610aae84828501610a40565b91505092915050565b6000602082019050610acc60008301846108cb565b92915050565b600081905092915050565b6000610ae98385610ad2565b9350610af68385846109ef565b82840190509392505050565b6000610b0f828486610add565b91508190509392505050565b600082825260208201905092915050565b7f47616d6520616c726561647920636f6d6d697474656400000000000000000000600082015250565b6000610b62601683610b1b565b9150610b6d82610b2c565b602082019050919050565b60006020820190508181036000830152610b9181610b55565b9050919050565b7f496e76616c696420736565642068617368000000000000000000000000000000600082015250565b6000610bce601183610b1b565b9150610bd982610b98565b602082019050919050565b60006020820190508181036000830152610bfd81610bc1565b9050919050565b6000604082019050610c196000830185610856565b610c2660208301846108b0565b9392505050565b7f47616d65206e6f7420666f756e64000000000000000000000000000000000000600082015250565b6000610c63600e83610b1b565b9150610c6e82610c2d565b602082019050919050565b60006020820190508181036000830152610c9281610c56565b9050919050565b6000819050919050565b610cb4610caf82610773565b610c99565b82525050565b6000610cc68284610ca3565b60208201915081905092915050565b600081519050919050565b600081905092915050565b60005b83811015610d09578082015181840152602081019050610cee565b60008484015250505050565b6000610d2082610cd5565b610d2a8185610ce0565b9350610d3a818560208601610ceb565b80840191505092915050565b6000610d528284610d15565b915081905092915050565b600081519050610d6c8161077d565b92915050565b600060208284031215610d8857610d87610704565b5b6000610d9684828501610d5d565b91505092915050565b7f416c72656164792072657665616c656400000000000000000000000000000000600082015250565b6000610dd5601083610b1b565b9150610de082610d9f565b602082019050919050565b60006020820190508181036000830152610e0481610dc8565b9050919050565b7f5365656420646f6573206e6f74206d6174636820636f6d6d69746d656e740000600082015250565b6000610e41601e83610b1b565b9150610e4c82610e0b565b602082019050919050565b60006020820190508181036000830152610e7081610e34565b905091905056fea2646970667358221220a14c249c9a887df48a163473c500d6301c14f24acf9ed2cd3af71e33c4c1bcfe64736f6c63430008130033",
  "linkReferences": {},
  "deployedLinkReferences": {}
}